{
  "_format": "hh-sol-artifact-1",
  "contractName": "Delivery",
  "sourceName": "src/delivery.contract.sol",
  "abi": [
    {
      "inputs": [],
      "stateMutability": "nonpayable",
      "type": "constructor"
    },
    {
      "inputs": [
        {
          "internalType": "address",
          "name": "_address",
          "type": "address"
        }
      ],
      "name": "addDeliveryCompanyAddress",
      "outputs": [],
      "stateMutability": "nonpayable",
      "type": "function"
    },
    {
      "inputs": [
        {
          "components": [
            {
              "internalType": "string",
              "name": "trackNumber",
              "type": "string"
            },
            {
              "internalType": "string",
              "name": "encryptedInformation",
              "type": "string"
            }
          ],
          "internalType": "struct Delivery.PackageDto",
          "name": "packageDto",
          "type": "tuple"
        }
      ],
      "name": "addPackage",
      "outputs": [],
      "stateMutability": "nonpayable",
      "type": "function"
    },
    {
      "inputs": [
        {
          "internalType": "uint256",
          "name": "",
          "type": "uint256"
        }
      ],
      "name": "deliveryCompanyAddresses",
      "outputs": [
        {
          "internalType": "address",
          "name": "",
          "type": "address"
        }
      ],
      "stateMutability": "view",
      "type": "function"
    },
    {
      "inputs": [
        {
          "internalType": "string",
          "name": "trackNumber",
          "type": "string"
        }
      ],
      "name": "getPackage",
      "outputs": [
        {
          "components": [
            {
              "internalType": "string",
              "name": "trackNumber",
              "type": "string"
            },
            {
              "internalType": "address",
              "name": "deliveryCompanyAddress",
              "type": "address"
            },
            {
              "internalType": "string[]",
              "name": "encryptedInformation",
              "type": "string[]"
            }
          ],
          "internalType": "struct Delivery.Package",
          "name": "",
          "type": "tuple"
        }
      ],
      "stateMutability": "view",
      "type": "function"
    },
    {
      "inputs": [],
      "name": "owner",
      "outputs": [
        {
          "internalType": "address",
          "name": "",
          "type": "address"
        }
      ],
      "stateMutability": "view",
      "type": "function"
    },
    {
      "inputs": [
        {
          "internalType": "uint256",
          "name": "",
          "type": "uint256"
        }
      ],
      "name": "packages",
      "outputs": [
        {
          "internalType": "string",
          "name": "trackNumber",
          "type": "string"
        },
        {
          "internalType": "address",
          "name": "deliveryCompanyAddress",
          "type": "address"
        }
      ],
      "stateMutability": "view",
      "type": "function"
    },
    {
      "inputs": [
        {
          "components": [
            {
              "internalType": "string",
              "name": "trackNumber",
              "type": "string"
            },
            {
              "internalType": "string",
              "name": "encryptedInformation",
              "type": "string"
            }
          ],
          "internalType": "struct Delivery.PackageDto",
          "name": "packageDto",
          "type": "tuple"
        }
      ],
      "name": "updatePackage",
      "outputs": [],
      "stateMutability": "nonpayable",
      "type": "function"
    }
  ],
  "bytecode": "0x608060405234801561001057600080fd5b50336000806101000a81548173ffffffffffffffffffffffffffffffffffffffff021916908373ffffffffffffffffffffffffffffffffffffffff160217905550611d54806100606000396000f3fe608060405234801561001057600080fd5b506004361061007d5760003560e01c80638eccf1591161005b5780638eccf159146100ec578063a370fdff1461011c578063a485b2cd14610138578063c216212a146101545761007d565b806387c60483146100825780638ac308af146100b25780638da5cb5b146100ce575b600080fd5b61009c60048036038101906100979190611148565b610185565b6040516100a9919061136a565b60405180910390f35b6100cc60048036038101906100c7919061141e565b610464565b005b6100d66108c3565b6040516100e39190611476565b60405180910390f35b610106600480360381019061010191906114c7565b6108e7565b6040516101139190611476565b60405180910390f35b61013660048036038101906101319190611520565b610926565b005b610152600480360381019061014d919061141e565b610af1565b005b61016e600480360381019061016991906114c7565b610e01565b60405161017c929190611597565b60405180910390f35b61018d610edd565b60008060005b60028054905081101561022c57846040516020016101b19190611603565b60405160208183030381529060405280519060200120600282815481106101db576101da61161a565b5b90600052602060002090600302016000016040516020016101fc9190611741565b604051602081830303815290604052805190602001200361021f57600192508091505b8080600101915050610193565b508161026d576040517f08c379a0000000000000000000000000000000000000000000000000000000008152600401610264906117ca565b60405180910390fd5b600281815481106102815761028061161a565b5b90600052602060002090600302016040518060600160405290816000820180546102aa90611678565b80601f01602080910402602001604051908101604052809291908181526020018280546102d690611678565b80156103235780601f106102f857610100808354040283529160200191610323565b820191906000526020600020905b81548152906001019060200180831161030657829003601f168201915b505050505081526020016001820160009054906101000a900473ffffffffffffffffffffffffffffffffffffffff1673ffffffffffffffffffffffffffffffffffffffff1673ffffffffffffffffffffffffffffffffffffffff16815260200160028201805480602002602001604051908101604052809291908181526020016000905b828210156104535783829060005260206000200180546103c690611678565b80601f01602080910402602001604051908101604052809291908181526020018280546103f290611678565b801561043f5780601f106104145761010080835404028352916020019161043f565b820191906000526020600020905b81548152906001019060200180831161042257829003601f168201915b5050505050815260200190600101906103a7565b505050508152505092505050919050565b336000805b6001805490508110156104f9573373ffffffffffffffffffffffffffffffffffffffff16600182815481106104a1576104a061161a565b5b9060005260206000200160009054906101000a900473ffffffffffffffffffffffffffffffffffffffff1673ffffffffffffffffffffffffffffffffffffffff16036104ec57600191505b8080600101915050610469565b508061053a576040517f08c379a000000000000000000000000000000000000000000000000000000000815260040161053190611836565b60405180910390fd5b60008060005b6002805490508110156105dd5785600001516040516020016105629190611603565b604051602081830303815290604052805190602001206002828154811061058c5761058b61161a565b5b90600052602060002090600302016000016040516020016105ad9190611741565b60405160208183030381529060405280519060200120036105d057600192508091505b8080600101915050610540565b508161061e576040517f08c379a0000000000000000000000000000000000000000000000000000000008152600401610615906117ca565b60405180910390fd5b3373ffffffffffffffffffffffffffffffffffffffff16600282815481106106495761064861161a565b5b906000526020600020906003020160010160009054906101000a900473ffffffffffffffffffffffffffffffffffffffff1673ffffffffffffffffffffffffffffffffffffffff16146106d1576040517f08c379a00000000000000000000000000000000000000000000000000000000081526004016106c8906118c8565b60405180910390fd5b6000600282815481106106e7576106e661161a565b5b9060005260206000209060030201600201805490509050600060018261070d9190611917565b67ffffffffffffffff8111156107265761072561101d565b5b60405190808252806020026020018201604052801561075957816020015b60608152602001906001900390816107445790505b50905060005b8281101561085c576002848154811061077b5761077a61161a565b5b9060005260206000209060030201600201818154811061079e5761079d61161a565b5b9060005260206000200180546107b390611678565b80601f01602080910402602001604051908101604052809291908181526020018280546107df90611678565b801561082c5780601f106108015761010080835404028352916020019161082c565b820191906000526020600020905b81548152906001019060200180831161080f57829003601f168201915b50505050508282815181106108445761084361161a565b5b6020026020010181905250808060010191505061075f565b5086602001518183815181106108755761087461161a565b5b602002602001018190525080600284815481106108955761089461161a565b5b906000526020600020906003020160020190805190602001906108b9929190610f14565b5050505050505050565b60008054906101000a900473ffffffffffffffffffffffffffffffffffffffff1681565b600181815481106108f757600080fd5b906000526020600020016000915054906101000a900473ffffffffffffffffffffffffffffffffffffffff1681565b60008054906101000a900473ffffffffffffffffffffffffffffffffffffffff1673ffffffffffffffffffffffffffffffffffffffff163373ffffffffffffffffffffffffffffffffffffffff16146109b4576040517f08c379a00000000000000000000000000000000000000000000000000000000081526004016109ab90611997565b60405180910390fd5b6000805b600180549050811015610a48578273ffffffffffffffffffffffffffffffffffffffff16600182815481106109f0576109ef61161a565b5b9060005260206000200160009054906101000a900473ffffffffffffffffffffffffffffffffffffffff1673ffffffffffffffffffffffffffffffffffffffff1603610a3b57600191505b80806001019150506109b8565b508015610a8a576040517f08c379a0000000000000000000000000000000000000000000000000000000008152600401610a8190611a03565b60405180910390fd5b6001829080600181540180825580915050600190039060005260206000200160009091909190916101000a81548173ffffffffffffffffffffffffffffffffffffffff021916908373ffffffffffffffffffffffffffffffffffffffff1602179055505050565b336000805b600180549050811015610b86573373ffffffffffffffffffffffffffffffffffffffff1660018281548110610b2e57610b2d61161a565b5b9060005260206000200160009054906101000a900473ffffffffffffffffffffffffffffffffffffffff1673ffffffffffffffffffffffffffffffffffffffff1603610b7957600191505b8080600101915050610af6565b5080610bc7576040517f08c379a0000000000000000000000000000000000000000000000000000000008152600401610bbe90611836565b60405180910390fd5b6000805b600280549050811015610c65578460000151604051602001610bed9190611603565b6040516020818303038152906040528051906020012060028281548110610c1757610c1661161a565b5b9060005260206000209060030201600001604051602001610c389190611741565b6040516020818303038152906040528051906020012003610c5857600191505b8080600101915050610bcb565b508015610ca7576040517f08c379a0000000000000000000000000000000000000000000000000000000008152600401610c9e90611a95565b60405180910390fd5b6000600167ffffffffffffffff811115610cc457610cc361101d565b5b604051908082528060200260200182016040528015610cf757816020015b6060815260200190600190039081610ce25790505b509050846020015181600081518110610d1357610d1261161a565b5b602002602001018190525060026040518060600160405280876000015181526020013373ffffffffffffffffffffffffffffffffffffffff1681526020018381525090806001815401808255809150506001900390600052602060002090600302016000909190919091506000820151816000019081610d939190611c4c565b5060208201518160010160006101000a81548173ffffffffffffffffffffffffffffffffffffffff021916908373ffffffffffffffffffffffffffffffffffffffff1602179055506040820151816002019080519060200190610df7929190610f14565b5050505050505050565b60028181548110610e1157600080fd5b9060005260206000209060030201600091509050806000018054610e3490611678565b80601f0160208091040260200160405190810160405280929190818152602001828054610e6090611678565b8015610ead5780601f10610e8257610100808354040283529160200191610ead565b820191906000526020600020905b815481529060010190602001808311610e9057829003601f168201915b5050505050908060010160009054906101000a900473ffffffffffffffffffffffffffffffffffffffff16905082565b604051806060016040528060608152602001600073ffffffffffffffffffffffffffffffffffffffff168152602001606081525090565b828054828255906000526020600020908101928215610f5c579160200282015b82811115610f5b578251829081610f4b9190611c4c565b5091602001919060010190610f34565b5b509050610f699190610f6d565b5090565b5b80821115610f8d5760008181610f849190610f91565b50600101610f6e565b5090565b508054610f9d90611678565b6000825580601f10610faf5750610fce565b601f016020900490600052602060002090810190610fcd9190610fd1565b5b50565b5b80821115610fea576000816000905550600101610fd2565b5090565b6000604051905090565b600080fd5b600080fd5b600080fd5b600080fd5b6000601f19601f8301169050919050565b7f4e487b7100000000000000000000000000000000000000000000000000000000600052604160045260246000fd5b6110558261100c565b810181811067ffffffffffffffff821117156110745761107361101d565b5b80604052505050565b6000611087610fee565b9050611093828261104c565b919050565b600067ffffffffffffffff8211156110b3576110b261101d565b5b6110bc8261100c565b9050602081019050919050565b82818337600083830152505050565b60006110eb6110e684611098565b61107d565b90508281526020810184848401111561110757611106611007565b5b6111128482856110c9565b509392505050565b600082601f83011261112f5761112e611002565b5b813561113f8482602086016110d8565b91505092915050565b60006020828403121561115e5761115d610ff8565b5b600082013567ffffffffffffffff81111561117c5761117b610ffd565b5b6111888482850161111a565b91505092915050565b600081519050919050565b600082825260208201905092915050565b60005b838110156111cb5780820151818401526020810190506111b0565b60008484015250505050565b60006111e282611191565b6111ec818561119c565b93506111fc8185602086016111ad565b6112058161100c565b840191505092915050565b600073ffffffffffffffffffffffffffffffffffffffff82169050919050565b600061123b82611210565b9050919050565b61124b81611230565b82525050565b600081519050919050565b600082825260208201905092915050565b6000819050602082019050919050565b600061128983836111d7565b905092915050565b6000602082019050919050565b60006112a982611251565b6112b3818561125c565b9350836020820285016112c58561126d565b8060005b8581101561130157848403895281516112e2858261127d565b94506112ed83611291565b925060208a019950506001810190506112c9565b50829750879550505050505092915050565b6000606083016000830151848203600086015261133082826111d7565b91505060208301516113456020860182611242565b506040830151848203604086015261135d828261129e565b9150508091505092915050565b600060208201905081810360008301526113848184611313565b905092915050565b600080fd5b600080fd5b6000604082840312156113ac576113ab61138c565b5b6113b6604061107d565b9050600082013567ffffffffffffffff8111156113d6576113d5611391565b5b6113e28482850161111a565b600083015250602082013567ffffffffffffffff81111561140657611405611391565b5b6114128482850161111a565b60208301525092915050565b60006020828403121561143457611433610ff8565b5b600082013567ffffffffffffffff81111561145257611451610ffd565b5b61145e84828501611396565b91505092915050565b61147081611230565b82525050565b600060208201905061148b6000830184611467565b92915050565b6000819050919050565b6114a481611491565b81146114af57600080fd5b50565b6000813590506114c18161149b565b92915050565b6000602082840312156114dd576114dc610ff8565b5b60006114eb848285016114b2565b91505092915050565b6114fd81611230565b811461150857600080fd5b50565b60008135905061151a816114f4565b92915050565b60006020828403121561153657611535610ff8565b5b60006115448482850161150b565b91505092915050565b600082825260208201905092915050565b600061156982611191565b611573818561154d565b93506115838185602086016111ad565b61158c8161100c565b840191505092915050565b600060408201905081810360008301526115b1818561155e565b90506115c06020830184611467565b9392505050565b600081905092915050565b60006115dd82611191565b6115e781856115c7565b93506115f78185602086016111ad565b80840191505092915050565b600061160f82846115d2565b915081905092915050565b7f4e487b7100000000000000000000000000000000000000000000000000000000600052603260045260246000fd5b7f4e487b7100000000000000000000000000000000000000000000000000000000600052602260045260246000fd5b6000600282049050600182168061169057607f821691505b6020821081036116a3576116a2611649565b5b50919050565b60008190508160005260206000209050919050565b600081546116cb81611678565b6116d581866115c7565b945060018216600081146116f0576001811461170557611738565b60ff1983168652811515820286019350611738565b61170e856116a9565b60005b8381101561173057815481890152600182019150602081019050611711565b838801955050505b50505092915050565b600061174d82846116be565b915081905092915050565b7f5061636b616765207769746820676976656e20747261636b206e756d6265722060008201527f6e6f7420666f756e640000000000000000000000000000000000000000000000602082015250565b60006117b460298361154d565b91506117bf82611758565b604082019050919050565b600060208201905081810360008301526117e3816117a7565b9050919050565b7f4e6f7420612064656c697665727920636f6d70616e7900000000000000000000600082015250565b600061182060168361154d565b915061182b826117ea565b602082019050919050565b6000602082019050818103600083015261184f81611813565b9050919050565b7f596f7520617265206e6f7420616c6c6f77656420746f2075706461746520746860008201527f6973207061636b61676500000000000000000000000000000000000000000000602082015250565b60006118b2602a8361154d565b91506118bd82611856565b604082019050919050565b600060208201905081810360008301526118e1816118a5565b9050919050565b7f4e487b7100000000000000000000000000000000000000000000000000000000600052601160045260246000fd5b600061192282611491565b915061192d83611491565b9250828201905080821115611945576119446118e8565b5b92915050565b7f4e6f74206f776e65720000000000000000000000000000000000000000000000600082015250565b600061198160098361154d565b915061198c8261194b565b602082019050919050565b600060208201905081810360008301526119b081611974565b9050919050565b7f4164647265737320697320616c726561647920696e20746865206c6973740000600082015250565b60006119ed601e8361154d565b91506119f8826119b7565b602082019050919050565b60006020820190508181036000830152611a1c816119e0565b9050919050565b7f5061636b616765207769746820676976656e20747261636b206e756d6265722060008201527f616c726561647920657869737473000000000000000000000000000000000000602082015250565b6000611a7f602e8361154d565b9150611a8a82611a23565b604082019050919050565b60006020820190508181036000830152611aae81611a72565b9050919050565b60006020601f8301049050919050565b600082821b905092915050565b600060088302611b027fffffffffffffffffffffffffffffffffffffffffffffffffffffffffffffffff82611ac5565b611b0c8683611ac5565b95508019841693508086168417925050509392505050565b6000819050919050565b6000611b49611b44611b3f84611491565b611b24565b611491565b9050919050565b6000819050919050565b611b6383611b2e565b611b77611b6f82611b50565b848454611ad2565b825550505050565b600090565b611b8c611b7f565b611b97818484611b5a565b505050565b5b81811015611bbb57611bb0600082611b84565b600181019050611b9d565b5050565b601f821115611c0057611bd1816116a9565b611bda84611ab5565b81016020851015611be9578190505b611bfd611bf585611ab5565b830182611b9c565b50505b505050565b600082821c905092915050565b6000611c2360001984600802611c05565b1980831691505092915050565b6000611c3c8383611c12565b9150826002028217905092915050565b611c5582611191565b67ffffffffffffffff811115611c6e57611c6d61101d565b5b611c788254611678565b611c83828285611bbf565b600060209050601f831160018114611cb65760008415611ca4578287015190505b611cae8582611c30565b865550611d16565b601f198416611cc4866116a9565b60005b82811015611cec57848901518255600182019150602085019450602081019050611cc7565b86831015611d095784890151611d05601f891682611c12565b8355505b6001600288020188555050505b50505050505056fea264697066735822122038170b506b8920e6d6a7bcf3ab0bcc5f3880dd3c33493edb1f82073afdd11d1864736f6c63430008180033",
  "linkReferences": {},
  "deployedLinkReferences": {}
}